{
  "_format": "hh-sol-artifact-1",
  "contractName": "Raffle",
  "sourceName": "contracts/Raffle.sol",
  "abi": [
    {
      "inputs": [
        {
          "internalType": "address",
          "name": "vrfCoordinatorV2",
          "type": "address"
        },
        {
          "internalType": "uint256",
          "name": "entranceFee",
          "type": "uint256"
        },
        {
          "internalType": "bytes32",
          "name": "gasLane",
          "type": "bytes32"
        },
        {
          "internalType": "uint64",
          "name": "subscriptionId",
          "type": "uint64"
        },
        {
          "internalType": "uint32",
          "name": "callbackGasLimit",
          "type": "uint32"
        },
        {
          "internalType": "uint256",
          "name": "interval",
          "type": "uint256"
        }
      ],
      "stateMutability": "nonpayable",
      "type": "constructor"
    },
    {
      "inputs": [
        {
          "internalType": "address",
          "name": "have",
          "type": "address"
        },
        {
          "internalType": "address",
          "name": "want",
          "type": "address"
        }
      ],
      "name": "OnlyCoordinatorCanFulfill",
      "type": "error"
    },
    {
      "inputs": [],
      "name": "Raffle_NotEnoughETHEntered",
      "type": "error"
    },
    {
      "inputs": [],
      "name": "Raffle_NotOpen",
      "type": "error"
    },
    {
      "inputs": [],
      "name": "Raffle_TransferFailed",
      "type": "error"
    },
    {
      "inputs": [
        {
          "internalType": "uint256",
          "name": "currentBalance",
          "type": "uint256"
        },
        {
          "internalType": "uint256",
          "name": "numPlayers",
          "type": "uint256"
        },
        {
          "internalType": "uint256",
          "name": "raffleState",
          "type": "uint256"
        }
      ],
      "name": "Raffle_UpkeepNotNeed",
      "type": "error"
    },
    {
      "anonymous": false,
      "inputs": [
        {
          "indexed": true,
          "internalType": "address",
          "name": "player",
          "type": "address"
        }
      ],
      "name": "RaffleEnter",
      "type": "event"
    },
    {
      "anonymous": false,
      "inputs": [
        {
          "indexed": true,
          "internalType": "uint256",
          "name": "requestId",
          "type": "uint256"
        }
      ],
      "name": "RequestRaffleWinner",
      "type": "event"
    },
    {
      "anonymous": false,
      "inputs": [
        {
          "indexed": true,
          "internalType": "address",
          "name": "winner",
          "type": "address"
        }
      ],
      "name": "WinnerPicked",
      "type": "event"
    },
    {
      "inputs": [
        {
          "internalType": "bytes",
          "name": "checkData",
          "type": "bytes"
        }
      ],
      "name": "checkUpkeep",
      "outputs": [
        {
          "internalType": "bool",
          "name": "upkeepNeed",
          "type": "bool"
        },
        {
          "internalType": "bytes",
          "name": "",
          "type": "bytes"
        }
      ],
      "stateMutability": "view",
      "type": "function"
    },
    {
      "inputs": [],
      "name": "enterRaffle",
      "outputs": [],
      "stateMutability": "payable",
      "type": "function"
    },
    {
      "inputs": [],
      "name": "getEntranceFee",
      "outputs": [
        {
          "internalType": "uint256",
          "name": "",
          "type": "uint256"
        }
      ],
      "stateMutability": "view",
      "type": "function"
    },
    {
      "inputs": [],
      "name": "getInterval",
      "outputs": [
        {
          "internalType": "uint256",
          "name": "",
          "type": "uint256"
        }
      ],
      "stateMutability": "view",
      "type": "function"
    },
    {
      "inputs": [],
      "name": "getLastestTimestamp",
      "outputs": [
        {
          "internalType": "uint256",
          "name": "",
          "type": "uint256"
        }
      ],
      "stateMutability": "view",
      "type": "function"
    },
    {
      "inputs": [],
      "name": "getNumWords",
      "outputs": [
        {
          "internalType": "uint256",
          "name": "",
          "type": "uint256"
        }
      ],
      "stateMutability": "pure",
      "type": "function"
    },
    {
      "inputs": [],
      "name": "getNumberOfPlayers",
      "outputs": [
        {
          "internalType": "uint256",
          "name": "",
          "type": "uint256"
        }
      ],
      "stateMutability": "view",
      "type": "function"
    },
    {
      "inputs": [
        {
          "internalType": "uint256",
          "name": "index",
          "type": "uint256"
        }
      ],
      "name": "getPlayer",
      "outputs": [
        {
          "internalType": "address",
          "name": "",
          "type": "address"
        }
      ],
      "stateMutability": "view",
      "type": "function"
    },
    {
      "inputs": [],
      "name": "getRaffleState",
      "outputs": [
        {
          "internalType": "enum Raffle.RaffleState",
          "name": "",
          "type": "uint8"
        }
      ],
      "stateMutability": "view",
      "type": "function"
    },
    {
      "inputs": [],
      "name": "getRecentWinner",
      "outputs": [
        {
          "internalType": "address",
          "name": "",
          "type": "address"
        }
      ],
      "stateMutability": "view",
      "type": "function"
    },
    {
      "inputs": [],
      "name": "getRequestConfirmations",
      "outputs": [
        {
          "internalType": "uint256",
          "name": "",
          "type": "uint256"
        }
      ],
      "stateMutability": "pure",
      "type": "function"
    },
    {
      "inputs": [
        {
          "internalType": "bytes",
          "name": "",
          "type": "bytes"
        }
      ],
      "name": "performUpkeep",
      "outputs": [],
      "stateMutability": "nonpayable",
      "type": "function"
    },
    {
      "inputs": [
        {
          "internalType": "uint256",
          "name": "requestId",
          "type": "uint256"
        },
        {
          "internalType": "uint256[]",
          "name": "randomWords",
          "type": "uint256[]"
        }
      ],
      "name": "rawFulfillRandomWords",
      "outputs": [],
      "stateMutability": "nonpayable",
      "type": "function"
    }
  ],
  "bytecode": "0x610160604052600361ffff166101209061ffff168152503480156200002357600080fd5b5060405162001833380380620018338339818101604052810190620000499190620002aa565b858073ffffffffffffffffffffffffffffffffffffffff1660808173ffffffffffffffffffffffffffffffffffffffff16815250505085600160006101000a81548173ffffffffffffffffffffffffffffffffffffffff021916908373ffffffffffffffffffffffffffffffffffffffff1602179055508460a081815250508360c081815250508267ffffffffffffffff1660e08167ffffffffffffffff16815250508163ffffffff166101008163ffffffff16815250506000600260146101000a81548160ff021916908360018111156200012a576200012962000346565b5b021790555080610140818152505050505050505062000375565b600080fd5b600073ffffffffffffffffffffffffffffffffffffffff82169050919050565b6000620001768262000149565b9050919050565b620001888162000169565b81146200019457600080fd5b50565b600081519050620001a8816200017d565b92915050565b6000819050919050565b620001c381620001ae565b8114620001cf57600080fd5b50565b600081519050620001e381620001b8565b92915050565b6000819050919050565b620001fe81620001e9565b81146200020a57600080fd5b50565b6000815190506200021e81620001f3565b92915050565b600067ffffffffffffffff82169050919050565b620002438162000224565b81146200024f57600080fd5b50565b600081519050620002638162000238565b92915050565b600063ffffffff82169050919050565b620002848162000269565b81146200029057600080fd5b50565b600081519050620002a48162000279565b92915050565b60008060008060008060c08789031215620002ca57620002c962000144565b5b6000620002da89828a0162000197565b9650506020620002ed89828a01620001d2565b95505060406200030089828a016200020d565b94505060606200031389828a0162000252565b93505060806200032689828a0162000293565b92505060a06200033989828a01620001d2565b9150509295509295509295565b7f4e487b7100000000000000000000000000000000000000000000000000000000600052602160045260246000fd5b60805160a05160c05160e05161010051610120516101405161144e620003e5600039600061086d01526000818161069c01526107b3015260006106bd0152600061067b0152600061065a0152600081816102fa01526103f7015260008181610337015261038b015261144e6000f3fe6080604052600436106100c25760003560e01c806353a2c19a1161007f57806391ad27b41161005957806391ad27b414610238578063e55ae4e814610263578063fa10c297146102a0578063fd6673f5146102cb576100c2565b806353a2c19a146101a45780635f1b0fd8146101cf5780636e04ff0d146101fa576100c2565b806309bc33a7146100c7578063115cbaf5146100f25780631fe543e31461011d5780632cfcc539146101465780634585e33b14610150578063473f1ddc14610179575b600080fd5b3480156100d357600080fd5b506100dc6102f6565b6040516100e99190610bd8565b60405180910390f35b3480156100fe57600080fd5b5061010761031e565b6040516101149190610c6a565b60405180910390f35b34801561012957600080fd5b50610144600480360381019061013f9190610e1e565b610335565b005b61014e6103f5565b005b34801561015c57600080fd5b5061017760048036038101906101729190610ed5565b610564565b005b34801561018557600080fd5b5061018e610776565b60405161019b9190610f63565b60405180910390f35b3480156101b057600080fd5b506101b96107a0565b6040516101c69190610bd8565b60405180910390f35b3480156101db57600080fd5b506101e46107af565b6040516101f19190610bd8565b60405180910390f35b34801561020657600080fd5b50610221600480360381019061021c9190611033565b6107db565b60405161022f929190611116565b60405180910390f35b34801561024457600080fd5b5061024d610869565b60405161025a9190610bd8565b60405180910390f35b34801561026f57600080fd5b5061028a60048036038101906102859190611146565b610891565b6040516102979190610f63565b60405180910390f35b3480156102ac57600080fd5b506102b56108d8565b6040516102c29190610bd8565b60405180910390f35b3480156102d757600080fd5b506102e06108e2565b6040516102ed9190610bd8565b60405180910390f35b60007f0000000000000000000000000000000000000000000000000000000000000000905090565b6000600260149054906101000a900460ff16905090565b7f000000000000000000000000000000000000000000000000000000000000000073ffffffffffffffffffffffffffffffffffffffff163373ffffffffffffffffffffffffffffffffffffffff16146103e757337f00000000000000000000000000000000000000000000000000000000000000006040517f1cf993f40000000000000000000000000000000000000000000000000000000081526004016103de929190611173565b60405180910390fd5b6103f182826108ee565b5050565b7f000000000000000000000000000000000000000000000000000000000000000034101561044f576040517f74938f2700000000000000000000000000000000000000000000000000000000815260040160405180910390fd5b6000600181111561046357610462610bf3565b5b600260149054906101000a900460ff16600181111561048557610484610bf3565b5b146104bc576040517fd6e19a8d00000000000000000000000000000000000000000000000000000000815260040160405180910390fd5b6000339080600181540180825580915050600190039060005260206000200160009091909190916101000a81548173ffffffffffffffffffffffffffffffffffffffff021916908373ffffffffffffffffffffffffffffffffffffffff1602179055503373ffffffffffffffffffffffffffffffffffffffff167f0805e1d667bddb8a95f0f09880cf94f403fb596ce79928d9f29b74203ba284d460405160405180910390a2565b600061057e604051806020016040528060008152506107db565b509050806105ed5747600080549050600260149054906101000a900460ff1660018111156105af576105ae610bf3565b5b6040517fb59e6bf80000000000000000000000000000000000000000000000000000000081526004016105e49392919061119c565b60405180910390fd5b6001600260146101000a81548160ff0219169083600181111561061357610612610bf3565b5b02179055506000600160009054906101000a900473ffffffffffffffffffffffffffffffffffffffff1673ffffffffffffffffffffffffffffffffffffffff16635d3b1d307f00000000000000000000000000000000000000000000000000000000000000007f00000000000000000000000000000000000000000000000000000000000000007f00000000000000000000000000000000000000000000000000000000000000007f000000000000000000000000000000000000000000000000000000000000000060016040518663ffffffff1660e01b81526004016106fe95949392919061124b565b6020604051808303816000875af115801561071d573d6000803e3d6000fd5b505050506040513d601f19601f8201168201806040525081019061074191906112b3565b9050807fde6349b018d6c03d837b67d9a198a6ba4842546f2295fe963fae141e5dbaef8160405160405180910390a250505050565b6000600260009054906101000a900473ffffffffffffffffffffffffffffffffffffffff16905090565b6000600163ffffffff16905090565b60007f000000000000000000000000000000000000000000000000000000000000000061ffff16905090565b600060606000600260149054906101000a900460ff16600181111561080357610802610bf3565b5b6000600181111561081757610816610bf3565b5b1490506000806003544261082b919061130f565b101590506000806000805490501190506000804711905083801561084c5750825b80156108555750815b801561085e5750805b955050505050915091565b60007f0000000000000000000000000000000000000000000000000000000000000000905090565b60008082815481106108a6576108a5611343565b5b9060005260206000200160009054906101000a900473ffffffffffffffffffffffffffffffffffffffff169050919050565b6000600354905090565b60008080549050905090565b600080805490508260008151811061090957610908611343565b5b602002602001015161091b91906113a1565b9050600080828154811061093257610931611343565b5b9060005260206000200160009054906101000a900473ffffffffffffffffffffffffffffffffffffffff16905080600260006101000a81548173ffffffffffffffffffffffffffffffffffffffff021916908373ffffffffffffffffffffffffffffffffffffffff1602179055506000600260146101000a81548160ff021916908360018111156109c6576109c5610bf3565b5b0217905550600067ffffffffffffffff8111156109e6576109e5610cdb565b5b604051908082528060200260200182016040528015610a145781602001602082028036833780820191505090505b5060009080519060200190610a2a929190610b18565b5060008173ffffffffffffffffffffffffffffffffffffffff1647604051610a5190611403565b60006040518083038185875af1925050503d8060008114610a8e576040519150601f19603f3d011682016040523d82523d6000602084013e610a93565b606091505b5050905080610ace576040517fba31c4f300000000000000000000000000000000000000000000000000000000815260040160405180910390fd5b8173ffffffffffffffffffffffffffffffffffffffff167f5b690ec4a06fe979403046eaeea5b3ce38524683c3001f662c8b5a829632f7df60405160405180910390a25050505050565b828054828255906000526020600020908101928215610b91579160200282015b82811115610b905782518260006101000a81548173ffffffffffffffffffffffffffffffffffffffff021916908373ffffffffffffffffffffffffffffffffffffffff16021790555091602001919060010190610b38565b5b509050610b9e9190610ba2565b5090565b5b80821115610bbb576000816000905550600101610ba3565b5090565b6000819050919050565b610bd281610bbf565b82525050565b6000602082019050610bed6000830184610bc9565b92915050565b7f4e487b7100000000000000000000000000000000000000000000000000000000600052602160045260246000fd5b60028110610c3357610c32610bf3565b5b50565b6000819050610c4482610c22565b919050565b6000610c5482610c36565b9050919050565b610c6481610c49565b82525050565b6000602082019050610c7f6000830184610c5b565b92915050565b6000604051905090565b600080fd5b600080fd5b610ca281610bbf565b8114610cad57600080fd5b50565b600081359050610cbf81610c99565b92915050565b600080fd5b6000601f19601f8301169050919050565b7f4e487b7100000000000000000000000000000000000000000000000000000000600052604160045260246000fd5b610d1382610cca565b810181811067ffffffffffffffff82111715610d3257610d31610cdb565b5b80604052505050565b6000610d45610c85565b9050610d518282610d0a565b919050565b600067ffffffffffffffff821115610d7157610d70610cdb565b5b602082029050602081019050919050565b600080fd5b6000610d9a610d9584610d56565b610d3b565b90508083825260208201905060208402830185811115610dbd57610dbc610d82565b5b835b81811015610de65780610dd28882610cb0565b845260208401935050602081019050610dbf565b5050509392505050565b600082601f830112610e0557610e04610cc5565b5b8135610e15848260208601610d87565b91505092915050565b60008060408385031215610e3557610e34610c8f565b5b6000610e4385828601610cb0565b925050602083013567ffffffffffffffff811115610e6457610e63610c94565b5b610e7085828601610df0565b9150509250929050565b600080fd5b60008083601f840112610e9557610e94610cc5565b5b8235905067ffffffffffffffff811115610eb257610eb1610e7a565b5b602083019150836001820283011115610ece57610ecd610d82565b5b9250929050565b60008060208385031215610eec57610eeb610c8f565b5b600083013567ffffffffffffffff811115610f0a57610f09610c94565b5b610f1685828601610e7f565b92509250509250929050565b600073ffffffffffffffffffffffffffffffffffffffff82169050919050565b6000610f4d82610f22565b9050919050565b610f5d81610f42565b82525050565b6000602082019050610f786000830184610f54565b92915050565b600080fd5b600067ffffffffffffffff821115610f9e57610f9d610cdb565b5b610fa782610cca565b9050602081019050919050565b82818337600083830152505050565b6000610fd6610fd184610f83565b610d3b565b905082815260208101848484011115610ff257610ff1610f7e565b5b610ffd848285610fb4565b509392505050565b600082601f83011261101a57611019610cc5565b5b813561102a848260208601610fc3565b91505092915050565b60006020828403121561104957611048610c8f565b5b600082013567ffffffffffffffff81111561106757611066610c94565b5b61107384828501611005565b91505092915050565b60008115159050919050565b6110918161107c565b82525050565b600081519050919050565b600082825260208201905092915050565b60005b838110156110d15780820151818401526020810190506110b6565b60008484015250505050565b60006110e882611097565b6110f281856110a2565b93506111028185602086016110b3565b61110b81610cca565b840191505092915050565b600060408201905061112b6000830185611088565b818103602083015261113d81846110dd565b90509392505050565b60006020828403121561115c5761115b610c8f565b5b600061116a84828501610cb0565b91505092915050565b60006040820190506111886000830185610f54565b6111956020830184610f54565b9392505050565b60006060820190506111b16000830186610bc9565b6111be6020830185610bc9565b6111cb6040830184610bc9565b949350505050565b6000819050919050565b6111e6816111d3565b82525050565b600067ffffffffffffffff82169050919050565b611209816111ec565b82525050565b600061ffff82169050919050565b6112268161120f565b82525050565b600063ffffffff82169050919050565b6112458161122c565b82525050565b600060a08201905061126060008301886111dd565b61126d6020830187611200565b61127a604083018661121d565b611287606083018561123c565b611294608083018461123c565b9695505050505050565b6000815190506112ad81610c99565b92915050565b6000602082840312156112c9576112c8610c8f565b5b60006112d78482850161129e565b91505092915050565b7f4e487b7100000000000000000000000000000000000000000000000000000000600052601160045260246000fd5b600061131a82610bbf565b915061132583610bbf565b925082820390508181111561133d5761133c6112e0565b5b92915050565b7f4e487b7100000000000000000000000000000000000000000000000000000000600052603260045260246000fd5b7f4e487b7100000000000000000000000000000000000000000000000000000000600052601260045260246000fd5b60006113ac82610bbf565b91506113b783610bbf565b9250826113c7576113c6611372565b5b828206905092915050565b600081905092915050565b50565b60006113ed6000836113d2565b91506113f8826113dd565b600082019050919050565b600061140e826113e0565b915081905091905056fea2646970667358221220afef531e01c365377d5748072f0cdf42baba4ef0418335ce78b5cd2f9c4c491f64736f6c63430008120033",
  "linkReferences": {},
  "deployedLinkReferences": {}
}